{
  "contractName": "HelloWorld",
  "abi": [
    {
      "inputs": [],
      "payable": false,
      "stateMutability": "nonpayable",
      "type": "constructor"
    },
    {
      "constant": true,
      "inputs": [],
      "name": "getMessage",
      "outputs": [
        {
          "name": "",
          "type": "string"
        }
      ],
      "payable": false,
      "stateMutability": "view",
      "type": "function"
    }
  ],
  "bytecode": "0x608060405234801561001057600080fd5b506040518060400160405280600581526020017f4d41434b410000000000000000000000000000000000000000000000000000008152506000908051906020019061005c929190610062565b50610107565b828054600181600116156101000203166002900490600052602060002090601f016020900481019282601f106100a357805160ff19168380011785556100d1565b828001600101855582156100d1579182015b828111156100d05782518255916020019190600101906100b5565b5b5090506100de91906100e2565b5090565b61010491905b808211156101005760008160009055506001016100e8565b5090565b90565b610303806101166000396000f3fe608060405234801561001057600080fd5b506004361061002b5760003560e01c8063ce6d41de14610030575b600080fd5b6100386100b3565b6040518080602001828103825283818151815260200191508051906020019080838360005b8381101561007857808201518184015260208101905061005d565b50505050905090810190601f1680156100a55780820380516001836020036101000a031916815260200191505b509250505060405180910390f35b606061018e6040518060400160405280600681526020017f48656c6c6f20000000000000000000000000000000000000000000000000000081525060008054600181600116156101000203166002900480601f0160208091040260200160405190810160405280929190818152602001828054600181600116156101000203166002900480156101845780601f1061015957610100808354040283529160200191610184565b820191906000526020600020905b81548152906001019060200180831161016757829003601f168201915b5050505050610193565b905090565b6060808390506060839050606081518351016040519080825280601f01601f1916602001820160405280156101d75781602001600182028038833980820191505090505b5090506060819050600080600091505b8551821015610255578582815181106101fc57fe5b602001015160f81c60f81b83828060010193508151811061021957fe5b60200101907effffffffffffffffffffffffffffffffffffffffffffffffffffffffffffff1916908160001a90535081806001019250506101e7565b600091505b84518210156102c85784828151811061026f57fe5b602001015160f81c60f81b83828060010193508151811061028c57fe5b60200101907effffffffffffffffffffffffffffffffffffffffffffffffffffffffffffff1916908160001a905350818060010192505061025a565b8296505050505050509291505056fea165627a7a723058204e6dae588d3665038929992dca93ac761f97fa3a764d01cc314c862ae51411800029",
  "source": "pragma solidity ^0.5.8;\n \ncontract HelloWorld {\n     \nstring defaultName;\n \n \nconstructor() public{\n    defaultName = 'MACKA';\n}\n \nfunction getMessage() public view returns(string memory){\n     return concat(\"Hello \" , defaultName);\n}\n \n  \nfunction concat(string memory _base, string memory _value) internal pure returns (string memory) {\n        bytes memory _baseBytes = bytes(_base);\n        bytes memory _valueBytes = bytes(_value);\n \n        string memory _tmpValue = new string(_baseBytes.length + _valueBytes.length);\n        bytes memory _newValue = bytes(_tmpValue);\n \n        uint i;\n        uint j;\n \n        for(i=0; i<_baseBytes.length; i++) {\n            _newValue[j++] = _baseBytes[i];\n        }\n \n        for(i=0; i<_valueBytes.length; i++) {\n            _newValue[j++] = _valueBytes[i];\n        }\n \n        return string(_newValue);\n    }\n  \n}\n",
  "sourcePath": "/home/damir/helloworld/contracts/HelloWorld.sol",
  "compiler": {
    "name": "solc",
    "version": "0.5.8+commit.23d335f2.Emscripten.clang"
  },
  "schemaVersion": "3.0.17",
  "updatedAt": "2019-11-08T14:21:23.639Z",
  "networkType": "ethereum",
  "devdoc": {
    "methods": {}
  },
  "userdoc": {
    "methods": {}
  }
}